:020000041000EA
:1000000000B5324B212058609868022188439860DF
:10001000D860186158612E4B002199600221596106
:100020000121F02299502B49196001219960352056
:1000300000F044F80222904214D00621196600F024
:1000400034F8196E01211966002018661A6600F04E
:100050002CF8196E196E196E052000F02FF8012189
:100060000842F9D1002199601B49196000215960AB
:100070001A491B48016001219960EB211966A021F2
:10008000196600F012F800219960164914480160C1
:100090000121996001BC002800D000471248134993
:1000A000086003C880F30888084703B5996A0420EC
:1000B0000142FBD001200142F8D103BD02B5186610
:1000C0001866FFF7F2FF186E186E02BD00000240BE
:1000D000000000180000070000035F00212200005C
:1000E000F4000018222000A00001001008ED00E03C
:1000F00000000000000000000000000074B24E7A12
:1001000000200420F7010010C3010010C5010010F9
:10011000C1010010C1010010C1010010C101001097
:10012000C1010010C1010010C1010010C701001081
:10013000C1010010C1010010C9010010CB01001065
:10014000CD010010CD010010CD010010CD01001037
:10015000CD010010CD010010CD010010CD01001027
:10016000CD010010CD010010CD010010CD01001017
:10017000CD010010CD010010CD010010CD01001007
:10018000CD010010CD010010CD010010CD010010F7
:10019000CD010010CD010010CD010010CD010010E7
:1001A000CD010010CD010010CD010010CD010010D7
:1001B000CD010010CD010010CD010010CD010010C7
:1001C00000BE00BE00BE00BE00BE00BEEFF3058054
:1001D000103800BEF2EB887190020010B8020010D7
:1001E0003802001090A31AE721482249086006C887
:1001F00081F30888104720480068002801D01C4877
:10020000F3E70DA40ECC002902D000F012F8F9E7B4
:100210001A491B4A002000E001C19142FCD1194952
:100220008847194988471949884700BEFDE701C931
:1002300001C29A42FBD37047B8020010C0000020F0
:10024000903A0020883C0010903A0020106601206F
:100250000868011000000420640104206C6901108A
:10026000001004200010042000000000704700006F
:100270000000000008ED00E0000000D01066012042
:100280004C780120991E00207D010020911E002045
:100290004C4F0020584F0020644F0020704F00202A
:1002A0007C4F0020884F0020944F0020B84F002042
:0802B000B04F0020A44F002014
:1002B800F8B5C04606480749091A8B10C90FC9186E
:1002C80010B5491003D0044B002B00D0984710BD3F
:1002D800106601201066012000000000054B10B5D3
:1002E800002B03D00449054800E000BFFFF7E2FFF8
:1002F80010BDC04600000000106E0120903A00209A
:10030800F8B5174C0B21200002F074FAA727A52195
:10031800144B00259C46144E8900BF0000E020BF06
:100328006258EFF3108072B61368002BFCD0BFF34D
:100338005F8FE35BA25B9B1A03D56246A25A013228
:10034800D3186258BFF35F8F156080F31088002BB5
:10035800E5D0200002F09CFA200004F015F8C04611
:100368004C6B0120A20200009E02000070B50D2017
:1003780084B001F0AFFB0A2000F0DAFD2E4D03AB8C
:10038800AC6A02AA200001A901F01CFA002803D1D6
:1003980021002A4800F0B8F80299039A019801F060
:1003A80035F900F061F8152000F08EF8D02380228E
:1003B8001B0692035A62224801F0BCFF214C00211F
:1003C800200024224030256001F012FE02221E4B3C
:1003D800A264E36301230C32E26404322265023A28
:1003E8006265043AA2655032A354636400F020F9B0
:1003F800050000F01DF929000200200002F028F98C
:10040800124801F097FF124802F0F6F8114801F07F
:1004180091FF114C114E124D280003A9039400F0CE
:10042800FDFEA0239B009C466444A642F4D10D48DF
:1004380001F080FF03F024FC884400207C47002062
:10044800404700204C6B01200000205050470020FE
:100458001101002060470020406E012040780120F3
:10046800F06D0120B047002010B502F04FF810BD24
:10047800094A83009A1810B5146840225440803203
:100488002240064CC000A44663441A60044B9C46B4
:100498006044416010BDC04604C0014004D0014022
:1004A80000400140064BC000C3181B6809025940B0
:1004B800C0239B001940034B9C4660440160704771
:1004C80004400140045001400123D0228340120619
:1004D80093629361094A83009A1811684022514037
:1004E80080320A400649C0008C4663441A60054BB6
:1004F8009C460523604443607047C04604C00140E1
:1005080004D00140004001400FB400B5084883B052
:1005180001F010FF049B002B07D005A918000191DA
:1005280001F07AFD034801F005FF012001F08CFD80
:10053800C0470020D0470020EFF3108072B6034A6E
:100548001368002BFCD0BFF35F8F70472C0100D0DD
:10055800BFF35F8F0022024B1A6080F31088704748
:100568002C0100D070B5EFF3108C72B60D4D2B68CE
:10057800002BFCD0BFF35F8F0724CB08C618C05CE4
:1005880001230C40A3401C000440034207D1184338
:100598003070BFF35F8F2C608CF3108870BD100033
:1005A800FFF7B2FF2C0100D0F8B54746CE46884683
:1005B80080B5EFF3108C72B61C4D2C68002CFCD063
:1005C800BFF35F8F9A4222D807210126894602E0AD
:1005D8000132934218D34D4637001540AF40D40836
:1005E8000119045D2742F3D110003C430C70BFF39E
:1005F8005F8F00220D4B1A608CF3108800280EDBE9
:10060800C0BCB946B046F8BD01204042EFE7BFF391
:100618005F8F00232B608CF31088012040424346F3
:10062800002BEDD00898FFF76FFFC0462C0100D0D3
:10063800044A1078431CDBB2172B00D9102313701F
:100648007047C046CC5F01200021044B044ABFF329
:100658005F8F02C39342FAD17047C046000100D0B1
:10066800800100D0054B064A1360064A13605360A8
:100678009360D36013615361936170478080808079
:1006880000E400E004E400E01F2318401E3B834020
:10069800002905D0C021044A49005350136070470F
:1006A800802201498B50FAE700E100E001228240F4
:1006B800034B1B6813405A1E9341D8B27047C0467B
:1006C80000E100E070B50D00EFF3108672B60F4A36
:1006D8001368002BFCD0BFF35F8F0D4B10309B6865
:1006E80084001B590B4A934203D09D4201D001F06C
:1006F8004FFA074B9B681D51BFF35F8FBFF35F8FA6
:100708000022024B1A6086F3108870BD240100D0C5
:1007180000ED00E0CD010010F0B5DE4657464E462C
:100728004546E0B50C0083B0EFF3108872B6634A13
:100738001368002BFCD0BFF35F8F614B61499A6847
:10074800030010339F00D55901938D4243D0A54231
:1007580054D05D4EAA1B2F2A3DD85C4B9B461B6884
:10076800994601231A009C4682404B4613401F229B
:1007780099466346024093409A4680225B4650461B
:100788009850BFF35F8FEFF305839B46002B37D05C
:10079800019B5B4501D001F0FBF901232A009A4334
:1007A8009068844208D176E04B005B189B00F318F0
:1007B8009868844236D01A00062151560029F3DA87
:1007C800844254D04B46002B27D0C02251463F4B81
:1007D8005200995019603A4B9B68DD51BFF35F8F07
:1007E800BFF35F8F0022354B1A6088F3108803B07F
:1007F800F0BCBB46B246A946A046F0BD0D00EAE7EC
:100808002A0063469A4390688442D5D10620105640
:10081800130000280ADA0D0031E0802351462B4AE4
:10082800D150D8E706201856002821DB42001118BD
:10083800890074188B46A1689960E179D9710621FD
:1008480061569971002924DBA488F11A64052415DE
:100858005C44091909051E4C490D21439980131858
:100868001C4A9B001178F31899711070AAE71300BD
:100878005946002914D1FF319171174991801549C2
:100888000A789A71154A9B1B5B415A43120D0A70EC
:1008980098E71149E2E70620105613000028C5DA48
:1008A8000F4A1049D21A083A5002400D0143998064
:1008B8000D4952080A43DA8084E7C046240100D073
:1008C80000ED00E0CD010010D05F012000E100E064
:1008D80000E0FFFF4A78012001BDFFFFAAAA00003F
:1008E8000A60012000F0FFFF00F8FFFF70B5012447
:1008F8000443EFF30581EFF3108C72B6214A1368B5
:10090800002BFCD0BFF35F8F1F4B05001F4AED1A69
:100918006D416A43120D1E4D8900AE6852B2765879
:10092800A6421CD00621595691421CD01221595674
:10093800914222D01E215956914220D02A2159563F
:100948000324914210D0134B19781A708171BFF3A8
:100958005F8F00220B4B1A608CF3108870BDAB6858
:100968000D4C5C50EFE700246100091989005B1801
:10097800FF21997109499980E5E70124F4E70224E8
:10098800F2E7C046240100D0D05F0120AAAA0000E7
:1009980000ED00E04A780120CD01001001BDFFFF05
:1009A800024B9C4661448900016070474000003456
:1009B80070B5114C114DAC420FD2FF262368002BA5
:1009C8000CD0FFF735FE01002000FFF7E9FFA680F5
:1009D800BFF35F8F0834AC42F0D370BDFFF728FE39
:1009E80001002000FFF7DCFF2671BFF35F8F08349A
:1009F800AC42E3D3F1E7C046C0650120D0650120D1
:100A08000A4B1968EFF3108072B60A68002AFCD006
:100A1800BFF35F8F1B68BFF35F8F00221A6080F3FC
:100A2800108840BF002000217047C0463C6E01205E
:100A3800F0B5DE4657464E464546E0B587B0EFF37B
:100A48000583032201251A40954091008846A9464E
:100A5800B34B03925C58B34B1D60B34B04934B46A6
:100A6800B24843630823E55E002D37DAA3881BB23A
:100A7800002B00DBADE0A379002B00D0EEE00823CB
:100A8800E05E002820DB430062691B18DB00D318F6
:100A98009E68DD68731C00D111E1A448010041443F
:100AA800826A0B69B71A9B1A9F4215D30123026AFF
:100AB800039883401A420FD09C4800F047FB8D42B0
:100AC80002DCCCD18642CAD940BF07B0F0BCBB46D5
:100AD800B246A946A046F0BD0E61EDE762696B001B
:100AE80092465B19DB009A4453469E68DF6800F023
:100AF8002DFB8F42BADC00D103E1002F00DAE8E0D9
:100B08005246534652691B699346049A934200D150
:100B1800D9E052460821605E5288000459461043C5
:100B28009847009001910099019A0B001000134317
:100B380000D1CEE013000A00B61A9F41002806DB58
:100B48007A4800F003FB009E019F36184F41534638
:100B58009E60DF6000229A5E002A00DA86E7530072
:100B680099186069C900411802938B68C9689B4647
:100B7800B94200DD7AE702D1B34200D976E708230B
:100B88009C46A444059565462281A446029B2C00F8
:100B980006E053009918C90041188D68C968AB462A
:100BA8009B18DB00C318B94206DC00D1B3E01C0077
:100BB8000023E25E002AECDA230064469C46534692
:100BC8001A806346059D1D80A3881BB2002B00DA9E
:100BD80051E72269EFF3108172B61368002BFCD03D
:100BE800BFF35F8F0123A7885B42A3803FB22369CD
:100BF800BFF35F8F00221A6081F31088002F00DA9C
:100C080039E72300083322009A4666697B00DB191E
:100C1800DB00F318996850468C460824115FDD689C
:100C2800002910DB029306E0AB4244D00023E15ECA
:100C38002000002906DB4C006418E4003419E3683E
:100C4800AB42F1DD029B078000201F5E1980002F58
:100C5800DCDA1400A379002B00D110E70023A3717C
:100C680026000823E15E08364B1C00D12CE708005B
:100C7800A246656902E03E004B1C1AD04B005B1887
:100C8800DB00EF180A008C46E95E7B881BB2002B5C
:100C9800F1DA01235B42DC17BB60FC60824205D0BD
:100CA800534631801B893B8053461A8160464B1C52
:100CB800E4D15446E5E6A3686345B7D9C2E76B1C9F
:100CC80000D0EAE6F8E65B4658461B6998470028D4
:100CD8001BD153461B8822692381EFF3108372B618
:100CE80011680029FCD0BFF35F8F514662880A80E3
:100CF80022696580BFF35F8F0021116083F310883C
:100D0800B4E6864200D8F8E6B0E65B461A685B6847
:100D18000092019307E7B34500D848E74CE7C0467F
:100D2800286E01203C700540410800200040054025
:100D380070B52E4C2569002D04D00A212C48FFF7E8
:100D48002FFE70BD2B4E0321300000F0F5F9E66050
:100D5800FFF76EFC284B03229C46D02322701B060B
:100D68001B6801216370254B6044A3600F2380003A
:100D780020610220638063694942A18019800231A1
:100D8800198647311D83585218315A5275325C39C9
:100D98009952183201319952183201319952183248
:100DA80001319952083518329D5202311832995240
:100DB80018320131995218320131995218320131E1
:100DC80099521832013199521832013199520C4B0B
:100DD8000C49DC6001303562FFF774FC0121032007
:100DE800FFF752FC084B1D60A7E7C04618600120BA
:100DF8003C6E01200040054040000034FFFF100019
:100E0800286E0120410800203860054070B50100B7
:100E18000469EFF3108C72B620680028FCD0BFF389
:100E28005F8F02200D5E4C6968004019C0002418CD
:100E38000869002D36DB26884E80BFF35F8F0026B9
:100E480006608CF31088E36063880498013320619E
:100E58005B0405985B0CA26060611A1C002B1FD014
:100E680093B22804628018430A69EFF3108C72B6B3
:100E78001368002BFCD0BFF35F8F8B8823808D8095
:100E88000B69BFF35F8F00221A608CF310880B7810
:100E980001329A40CB6808498C4663441A6070BD99
:100EA8000122DDE7BFF35F8F002303608CF3108816
:100EB80001204042F3E7C0463C20000010B54389BA
:100EC8000A1493421ADD53009B184269DB00D318B9
:100ED8000469EFF3108C72B62268002AFCD0BFF3C5
:100EE8005F8F5A88090494B2090C8A4208D00369B2
:100EF800BFF35F8F00221A608CF31088002010BDAA
:100F08008022120214435C80012302698371BFF3BB
:100F18005F8F002111608CF31088044902788C4699
:100F28009340C268012062441360E8E73C20000057
:100F3800F0B5C64600B582B0040000F00FF9FA22F9
:100F480006000F00200000230021920000F0A6FFF9
:100F58008019794104000D1E02DA01242E4D6442E5
:100F680006267642F71736196F41AF4214D811D0CA
:100F780000F0F4F832003B00121A8B41002B15DC0C
:100F8800002B46D02000290000F026F902B080BCD2
:100F9800B846F0BDA642EBD90026002700F0DEF8DF
:100FA80032003B00121A8B41002BE9DD00F0D6F825
:100FB80032003B00121A8B41002B0ADB00230193FD
:100FC800164B3200009316483B00FFF71FFF013015
:100FD800D8D000233900B0469C46124A1248536ABA
:100FE800994204D8966A4645CCD29942CAD1066835
:100FF800EFF3108772B63368002BFCD0BFF35F8F16
:101008000368BFF35F8F66461E6087F3108820BFB2
:10101800E5E7002AB6D0C9E7FFFFFF7F11080020E7
:1010280018600120004005403C6E0120F0B557468D
:101038004E46DE464546E0B506000F0085B0EFF3A4
:10104800058399468B46002B12D0384900204B6AFD
:10105800BB4206D38A6ADB1B591E8B41B242404110
:10106800184305B0F0BCBB46B246A946A046F0BD41
:101078002F4B9A46DB68984653461B7840460393A5
:1010880000F064F84246039B040004339B009B581D
:101098000D001B1A39003000001BA941894510DCDE
:1010A8000DD020BF214A0020536A5B45D9D3926AEC
:1010B800DB1B591E8B41B24240411843D1E78342A2
:1010C800EFD900F04BF832003B00121A8B41002B8D
:1010D8001ADB00230193174B3200009350463B0064
:1010E800FFF794FE011E0FDD104B5A6A5A451BD3B9
:1010F8009B6AB34216D35046FFF7E0FE0B4A002026
:10110800536A5B45ADD3D2E7084A0020536A5B4572
:10111800A7D30020926ADB1BB24240415A1E93417A
:1011280018439EE75A45E6D120BFE4E70040054052
:10113800186001201108002010B5024A0248FFF784
:1011480011FA10BDD4470020106B01200300416A3A
:101158000A00986A596A8A42FAD17047034B596A59
:101168000A00986A596A9142FAD1704700400540CE
:1011780070B504000D00174A536A1900966A536A3D
:101188008B42FAD13000190024184D41AB4216D8D1
:1011980013D0104B2A005B6A9D4203D90D494B6A54
:1011A8009342FCD3934207D10A4A02E0516A99421A
:1011B80002D1916AA142F9D370BDA642E9D9054B83
:1011C8005B6A1C005A1CEFD0012201246442E51717
:1011D8005242E3E700400540064A536A9942FCD868
:1011E80007D1044B02E05A6A914202D19A6A9042AE
:1011F800F9D870470040054070B516000D00190079
:101208000400FFF7CDFB2900701C00F0C7FE002387
:10121800E681A5816060A36070BDC046F8B5040092
:10122800002708E0934218D12368BFF35F8F1F603F
:1012380085F3108820BF2268EFF3108572B6136813
:10124800002BFCD0BFF35F8F20896389E289C31A22
:10125800E8D5561CF3189342E6D0A2896368504338
:10126800181800F0CBFE002210002389E189013311
:101278009BB29942504141420B4023812368BFF3FE
:101288005F8F1A6085F3108840BFF8BD70B5040001
:101298000800002108E0002B18D12368BFF35F8FF6
:1012A800196086F3108820BF2268EFF3108672B6A3
:1012B8001368002BFCD0BFF35F8F658923895B1B04
:1012C800E9D5E2890132D318002BE6D0002806D0F0
:1012D800A28961685543491900F090FE6589002389
:1012E8001900E2890135ADB2AA4259414A42154076
:1012F80065812268BFF35F8F136086F3108840BF53
:1013080070BDC046F8B5040006200D0000F078F95D
:10131800002844D0374B3849E3185A1E934180229D
:10132800120494465B429B0D344A9B056344136048
:10133800334A136018000A689043FBD12D4B314A99
:10134800E31859424B4180215B004900062099521D
:1013580000F056F92900C00000F012FD0130C30961
:101368001ED1402701226262A362266BF30722D4B2
:10137800E36A254B0620E51800232B60266300F05E
:101388003FF93900800000F0FBFC7023E26A5A4004
:101398000E3313402B601D4B23630323A364F8BD56
:1013A8001B4A93421ED900231A4A1B4F6262A3624A
:1013B800266BF307DCD5194B144AE3181A60656AE3
:1013C800A36A0620AD01ED1800F01AF9144900F0DF
:1013D800D7FCAD020100280000F0D2FC0021FFF785
:1013E800C7FEC5E74006800E9F011A003F1803009C
:1013F800B9E7C0460080FCBF08C0004000E00040DC
:1014080000F00040407801202C100000010300008B
:10141800FEFF0000FFFF0000C0FF3F00303000006B
:101428004E0E0000F8B5DE464E4657464546E0B536
:101438008B4605000A991800160000F0A1FC0A9BCB
:101448006C001F02324B64199C46A4006444636814
:1014580081469F4200D967602B1FDBB29846012B5B
:1014680030D9C02380229B01E31812011A60294B4E
:10147800AD0059599A4600291BD17301E02622680C
:1014880053401E40802342465B01E3181E60012A38
:1014980030D9802380229B01E31812011A60534639
:1014A8004A4667605A51F0BCBB46B246A946A046B8
:1014B800F8BD586900F064FC013043001B18033B79
:1014C800FDD2DAE75B46012BCBD1C02303229B0177
:1014D800E3181A60023AA3681A42FCD07301E026A6
:1014E8002268AD0053401E4080230A4A5B019246A1
:1014F800E3181E605A462168514003220A401A60C8
:1015080001225B469A40A3681A42FCD0C1E7C04654
:1015180000800040186B0120F0B546464F46D6467D
:10152800C0B51F00344B44009C462418A4006444F2
:10153800636888461600FF2B02D880235B0063602F
:10154800031FDBB29A46012B30D9C02380229B01AE
:10155800E31812011A60294B850059599946002948
:101568001BD17301E026226853401E408023524657
:101578005B01E3181E60012A30D9802380229B0179
:10158800E31812011A6080235B0063604B465F51C9
:10159800E0BCBA46B146A846F0BD586900F0F0FB79
:1015A800013043001B18033BFDD2DAE74346012B09
:1015B800CBD1C02303229B01E3181A60023AA36827
:1015C8001A42FCD07301E0262268850053401E4071
:1015D80080230A4A5B019146E3181E60424621684F
:1015E800514003220A401A60012342469340A268F0
:1015F8001342FCD0C1E7C04600800040186B0120B0
:10160800014B8000C0587047186B0120F0B5474661
:10161800CE4680B55B4B16005A680700884683B0F3
:10162800FF2A02D8802252005A600322564B554D99
:101638001A600123AC682342FCD02022296851405B
:10164800C0320A4051490A602A684E4D5A40032365
:1016580013400B600223AC682342FCD080224C4B21
:1016680012011A6080235B006B604A4C99464A4B12
:101678003A006361012143464848009600F0D8F9D2
:1016880041463800714300F07BFB454B05005A6822
:10169800FF2A01D84A465A608022424B12011A603A
:1016A8002169002907D0606900F06AFB0130430016
:1016B8001B18033BFDD2E023394A3B4811680B4015
:1016C800036002231168594001330B400421036071
:1016D80093681942FCD08021344B0901196080219C
:1016E800334B490051602361264B5A68FF2A00D8C2
:1016F800596003220121244B1A60224A9368194237
:10170800FCD0E023106803402048036012680323DC
:101718004A40022113401B4A036093681942FCD0D7
:1017280080211B4B090119608021224B490051601F
:1017380065615A68FF2A00D8596080221E4B120141
:101748001A60A169002907D0606900F019FB01300F
:1017580043001B18033BFDD2402316490A685A4030
:10176800A0331340154A13608022154B12011A60EA
:1017780080235B004B60084BA36103B0C0BCB94633
:10178800B046F0BD3C8000403CB000403C9000407A
:101798003CA00040186B0120006CDC020080024075
:1017A8003080004030B000403090004030A0004011
:1017B800001BB7004880004048B0004048900040F7
:1017C80048A00040F0B54E46DE4657464546E0B5CF
:1017D8001600924A85B09346A022520091465A4676
:1017E80003969B46060001920291019B8C4A934204
:1017F8000DD901235B429C468A4AE1449446019BE9
:10180800634401934B460F2BEFD100208EE01F005D
:10181800854B07249C46674423006343380019001E
:10182800984600F0ADFAA246651E864250D06C4339
:101838003800210000F0A4FA864259D06B1E984661
:10184800012D00D1D3E05346E41A2100380000F0FE
:1018580097FA864258D0AB1E9846022D00D1B9E0BF
:101868005346E41A2100380000F08AFA864264D010
:10187800EB1E9846032D66D05346E41A2100380023
:1018880000F07EFA864200D172E02B1F9846042DA4
:1018980000D174E05346E41A2100380000F070FAD1
:1018A800864200D17DE0052D00D17FE05346380007
:1018B800E11A00F065FA06248642ADD10029ABD1C1
:1018C800C8465B46D14601250298039E26E0A846F5
:1018D8004146380000F054FA002900D197E0651E0F
:1018E800A2466C433800210000F04AFA8642A5D18E
:1018F8002100380000F044FA00299FD1C8465B4611
:10190800D1460298039E09E00029A4D15246C24656
:101918005B46C846554691460298039E424643494F
:1019280051434A460160012032601D6005B0F0BC99
:10193800BB46B246A946A046F0BD0029E6D0EB1E3C
:101948009846032D98D1092138000324092500F071
:1019580017FA8642BBD00323062138009A4603347F
:10196800073D00F00DFA8642C2D0012398466AE787
:101978000029CBD02B1F9846042D00D08AE70424D9
:101988000C353B099E42A2D004230C2138009A460C
:1019980008340D3D00F0F4F98642A9D00223984698
:1019A80051E70029B2D0052D00D07FE71921380072
:1019B800192500F0E5F9864226D01421380000F0F8
:1019C800DFF9052314249A4686421BD0023B984629
:1019D800153D38E7042302249846BB089E4200D1EF
:1019E80076E7A246013D7B089E4200D180E7B742D8
:1019F80000D0FEE60122C8465B46914601250298C2
:101A0800039E8BE7042573E7A846052460E7C846CC
:101A18005B46A14625000298039E7FE750262F00CB
:101A280050F80C0020D1FFFFB0710B00001BB7006D
:101A3800F8B5040021481E0017000D0000F0A0F9B9
:101A48000100380000F09CF9069B36041B031E4376
:101A58002368002B20DB1A4B1A49E3185A1E9341BE
:101A68008022920194465B421B0B174A1B03634476
:101A78001360164A13601F000A689743FBD1144B82
:101A88002560E2182123A06013602368002BFCDA8C
:101A98000823E6601360F8BD3F2322681340AB4279
:101AA800D9D1A3681B051B0D8342D4D1EE22E3686C
:101AB800D2021340B342CED1EDE7C046001BB700B7
:101AC8000040FDBF08C0004000E0004000F00040BA
:101AD80004300000044B00011B68044A5840F023FE
:101AE800034013607047C04600400640005006405F
:101AF8008023024A9B000B43D36270470080054055
:101B0800002310B50100988A1B8B984710BDC0466A
:101B1800162310B50100188802331B88984710BD9A
:101B2800F8B54746CE4680B50F1E18D014239946FF
:101B3800043304000025012698464B46188843467E
:101B480021681B88984701C4431E98410135064007
:101B5800AF42F2D13000C0BCB946B046F8BD01264C
:101B6800F8E7C046AA23064A1B0113608D235B00D1
:101B7800D3600449044B19605368002BFCDA7047A2
:101B88000040024000B0FA00006002407047C046C2
:101B980010B50148FEF7B8FCF847002070B5074DAE
:101BA800074EB54209D20024013E761BB60808CD7F
:101BB800984723000134B342F9D170BDD0650120A4
:101BC8000C66012070B5074D074EB54209D20024B6
:101BD800013E761BB60808CD984723000134B3426E
:101BE800F9D170BD046601200C660120054B064A38
:101BF80006491A60064A074B1A6010000B6898439A
:101C0800FBD1704700E00040BFCDFBFE08C000409C
:101C1800FE7F3C0000F00040044BDB6C002B03D13E
:101C28008022034BD2021A607047C0460000115050
:101C38004C201150044A054B1A60054A1368DB0111
:101C48008033FBD17047C046FFFFFF0100F0004022
:101C580008C000404022034B9A675A671A67DA6641
:101C68007047C04600F0014010B5FEF7EDFC10BD0E
:101C780070B5044D044CA968C022200000F0BEF9DC
:101C8800AC6070BD00ED00E000000020002310B53E
:101C9800294C82B0A367FFF765FF0122274B1A6022
:101CA800636C012BFCD10322254B1A60224A936BEB
:101CB800012BFCD1013300930121224A224804332D
:101CC800FFF7B6FE052301210093204A2048FFF7BD
:101CD800AFFE0022022104201E4BFFF71DFC00224C
:101CE800012105201C4BFFF717FC002200210720CB
:101CF8001A4BFFF711FC002200210820174BFFF7B1
:101D08000BFC8023DB000093002200210920134BE9
:101D1800FFF788FB0022104B00210620FFF7FCFB91
:101D28000420FFF76DFC0E4900F02AF8010000209E
:101D3800FFF7DEFE02B010BD008000403CB000405E
:101D480030B00040002F685900800240008C864760
:101D580000C00240001BB70040597307006CDC024A
:101D680040420F0001480421014B18473060012010
:101D780031190020014B9B68184700003060012092
:101D8800114A936F9B0813D210665166002905D03B
:101D9800FFE7FFE7FFE7516F106F704704B50028B2
:101DA80001D00020C04301F05DFA002104BDC04607
:101DB800F0B5146E556E576F166FFFF7E5FF146692
:101DC800556657671667F0BD000000D0132370B53D
:101DD8001D78012D19D014DD1F48FFF799FE060064
:101DE8001E48FFF795FE1E4C80223100200000F0AF
:101DF80005F9022D2DD01B48FFF782FE1A4B1860FB
:101E080070BD1A4B164CA364F5E7184B144C2360AD
:101E18006360A360E36023616361A361E36123629C
:101E28006362A362E36223636363A363E36323647C
:101E38006364A364E36423656365A365E36523665C
:101E48006366A366E36623676367A367E367A364C0
:101E5800D1E7064BA364CEE7534400005346000085
:101E6800906701204C330000386E0120811C00204F
:101E780007B5604601880A0A0230DF2AFAD1C9B2DA
:101E8800820804D3028840880004104300E00068F8
:101E9800014A5050039007BD9067012051434343C6
:101EA800C9188C46110C83B24B4310B4040C61431F
:101EB80092B280B2504362431C041B0C001910BC40
:101EC80059411304120CC018514161447047000075
:101ED800132310B512481C78FFF71AFE0100012CD5
:101EE8000AD003DD80220F4800F088F80E48FFF77B
:101EF80007FE0E4B186010BD0A4C5422200000F05B
:101F08007DF80B4B6365A365E36523666366A3668B
:101F1800E36623676367A367E3672362E361E5E733
:101F280053460000906801204C330000386E0120B1
:101F3800451D002007B5604601880A0A0230DF2ADD
:101F4800FAD1C9B2820804D3028840880004104339
:101F580000E00068014A5050039007BD90680120D6
:101F680070B504000A4E300001F0DEFE200001F0DA
:101F7800DBF90500300001F045FF002D05D0054BC9
:101F88002C199C4201D8280070BD0348FEF7BCFA02
:101F9800C06501200000042004480020F8B50600B0
:101FA8000C000C4F380001F0BFFE2100300001F09A
:101FB8005BF90500380001F025FF7443002D05D0BA
:101FC800054B2C199C4201D82800F8BD0348FEF7A0
:101FD8009BFAC046C0650120000004200448002088
:101FE80001480421014B18474060012031190020A5
:101FF800014B1B681847000040600120014B5B68DB
:10200800184700004060012010B5002800D110BD1D
:1020180000F046F9FBE7C04610B5094A030014680A
:1020280084B0002C08D0012200910648524203A92E
:10203800A047012004B010BD00F07CF90020F9E7AA
:102048000C6E0120191E002000BEFDE7094A03009E
:102058001068002805D00849C3188B4207D81360B8
:10206800704706480449C31810608B42F7D901200D
:102078004042F5E7086E0120000004204C7801205A
:1020880010B5FFF7E1FFC04670B5FFF787FD074DB4
:10209800074EB54209D20024013E761BB60808CD8A
:1020A800984723000134B342F9D170BD0C66012072
:1020B80010660120030010B5080011001B6898473E
:1020C80010BDC046F0B5C64600B5437D07000C00FC
:1020D8001600002B46D0002A17DD0B780A2B24D0D7
:1020E80000239846012E13D001252900635C013591
:1020F8000A2B26D0B542F8D1464509DCA419013C83
:1021080023780D3B5A4253413B7580BCB846F0BD1D
:102118004346E018A419F11A013C3B689847237814
:102128000D3B5A4253413B75EFE7037D002BD7D156
:1021380002210F483B689847012EDFD001239846BB
:10214800D2E7631E5B5C0D2BD4D0884504DA434686
:10215800C91AE0183B689847022105483B68A84619
:102168009847C7E70368110020009847CDE7C046A5
:10217800A04F0020F0B54546DE464E465746E0B52E
:1021880083B091461C0080460D00FEF7E7FF002350
:10219800304A12184B41002B02DA01222E4B5242D0
:1021A8002E4908008A4601F0E1FD07006B1C03D1A7
:1021B800404601F0E3FB0500002C27D0284E294BB0
:1021C8001C68002C18D04B46002B21D1264B994671
:1021D80002E02469002C0FD02368002BF9D04B466D
:1021E8001B68002B01D09C42F3D120002A004146F5
:1021F800B0472469002CEFD1002F26D1280003B066
:10220800F0BCBB46B246A946A046F0BD174ED6E77D
:10221800154B99460A239B4602E02469002CEBD013
:102228002368002BF9D04B461B68002B01D0A34232
:10223800F3D12A0041462000B0476B465A46200099
:10224800DA71D91D0122B047E7E7504601F0DAFDFF
:10225800D4E7C04640420F00FFFFFF7FC86501205A
:10226800D51E0020486B0120046E0120C51E0020E9
:102278000A4A1368002B05D10CE01A001B691032BA
:10228800002B07D08342F8D1002902D118691060C9
:10229800196170470029FCD01060FAE7486B0120EB
:1022A800F0B5CE46474680B583B06B460600DD1DC7
:1022B8002870FEF753FF0023194A12184B41002BD0
:1022C80002DA0122174B524217490800884601F0EA
:1022D8004DFD164B81461C68002C14D0144F02E0AB
:1022E8002469002C0FD02368002BF9D03B68002B01
:1022F80001D09C42F4D1200001222900FFF7E2FE20
:102308002469002CEFD14B46002B05D1300003B0D7
:10231800C0BCB946B046F0BD404601F073FDF5E7D4
:1023280040420F00FFFFFF7FC8650120486B012076
:10233800046E012070B5040001F020FB01230100A8
:10234800050001222000FFF715FF084B1C68002C30
:1023580006D06368002B05D098472469002CF8D173
:10236800280070BD2469002CF3D1F9E7486B0120DF
:10237800F0B5002915DD0E4B0D271A680D4B0E4CD4
:10238800D3185D426B41451820215B001E5F04781D
:10239800A64207D093691942FCD101301460A842C3
:1023A800F5D1F0BD93691942FCD11760F2E7C04638
:1023B800447801200080FCBF40780120204B70B594
:1023C80004000D1E1E682ADD002010211D4B013C53
:1023D8001A689369194214D1013093691942FCD1E2
:1023E800136823548542F4D1002E08D050239363F8
:1023F800516B183B0B4014498C466244136028000B
:1024080070BD002E08D050239363516B183B0B40CE
:102418000D498C46624413600028F1D10CE0002E6F
:102428000AD05022074B1B689A63596B183A0A4026
:1024380005498C4663441A6003204042E0E7C046E1
:10244800086B01204478012034100000064B10B5B9
:102458001B68002B06D00021044A12689163044AC5
:102468001068984710BDC046086B012044780120C9
:102478000C6B01200822034B19688B691A42FCD1A6
:102488007047C04644780120F8B51A4F1A4B3A688D
:102498000500D31858424341184E14331C003368C2
:1024A800002D02D0002B0FD0F8BD002BFCD000214E
:1024B80020009563FEF7E8F820001149FEF72CF993
:1024C800104B35601D60EFE70E4B200019600C497A
:1024D8003560FEF7F7F801212000FEF7D5F8502205
:1024E8003B689A63596B183A0A4007498C4663441B
:1024F8001A60D9E7447801200080FCBF086B0120EE
:102508005D2200200C6B0120341000000D4B10B52B
:102518001B780D4B0D4C1B780D4B02211B780D4B76
:1025280000202360FDF7A4FF02210120FDF7A0FF92
:10253800E12120684902FEF7E5FE01210648FFF780
:1025480097FE10BDB4020010B002001044780120BC
:10255800AC020010004003405060012003BDC0469B
:1025680010B50400FFF72EFBA04710BDF0B5C64616
:1025780000B5040086B00F200E009046FEF796F8CE
:10258800002105000F20FEF77FF8002300220092AB
:1025980001930123029343460393D02304960594A1
:1025A8006F4600240026012102201B06002C13D0B0
:1025B8001A6D1042FCD05C6540BF1A6D114203D100
:1025C80020BF1A6D1142FBD09A6DA24209D0002695
:1025D800B200BC58EAE79A6D1A6D1142FBD140BFB0
:1025E800E6E70136062EF3D129000F20FEF74CF856
:1025F80006B080BCB846F0BD0D4B0E4A70B593428C
:1026080010D31C000C4A99180B4D0C4A9268605163
:10261800FF20C00023500A4B0A4823500A48FFF7FE
:10262800A5FF70BD01235B421C000849ECE7C046CA
:102638000008042064010420F407000000ED00E015
:1026480071230020FC0700006D230020F307000021
:102658003423F0B5DE4657464E4645469A46E0B521
:1026680005008244504683B08946904600F0B4FA8B
:1026780028002E003C302F1D00F078F93C00403631
:10268800012000F031FC2060012000F02DFC60608A
:1026980004CEE86B131D9B00C318A360534BC318EB
:1026A8001B0DDB009B18E3601034A245E8D19C2287
:1026B80000239D209200AB50083AAB5080000432B2
:1026C800AB5004214B4608222818FEF795FDA1239C
:1026D8009B00EC1808224B4604212000FEF78CFDD5
:1026E800A52080004346082204212818FEF784FD0F
:1026F800A92080004346082204212818FEF77CFD03
:102708002B00012239002868683300F069FA2B0091
:10271800002239002868E83300F062FA2B00802292
:10272800693339002868FF33920500F0EFFA2B006F
:10273800E933FF3300223900286800F0E7FA032361
:102748000193A1239B009B460023984616E08A42EA
:1027580035D04E469F00626801339BB2BE508B4213
:1027680035D82381BFF35F8F434603608CF310880D
:1027780040BF019B013B0193002B2DD02B681B69A7
:102788005800C01840088000FFF7EAFB814600287F
:1027980029D05B46EA58EFF3108C72B61368002B09
:1027A800FCD0BFF35F8F584623896289E189285896
:1027B8009A1ACCD54E1CB24652448A42C9D1BFF3AC
:1027C8005F8F434603608CF3108820BFE1E74346E0
:1027D8002381BFF35F8FC8E703B0F0BCBB46B246A6
:1027E800A946A046F0BD0248FDF78EFE0000E0AF06
:1027F800A4480020012270B50C0011001500836860
:102808001600994043689D402B0045690B43AE4034
:10281800334316008569AE4033431600456AAE401F
:10282800856A3343AA40A0251343114AED05A950F0
:102838000B2C10D00F4A126851400F4A0B401360FE
:102848000E4B0F4958600C20FDF73CFF012120007A
:10285800FDF71AFF70BD0B4A12684A4013400A4A36
:102868000A491360054B18600B20FDF72BFFEDE7B5
:102878000C0400001404005014140050406B012094
:1028880051410020040400500414005075410020F8
:102898004168F8B5334BCC029C461C40A023DB05AD
:1028A800474606009846CE4685688B01AD014344ED
:1028B8004544E83680B51E605D6004252A4A9D605F
:1028C80014431C6194266346A94645698769EC024E
:1028D8001C407600AB01BF0143444744B0468044E6
:1028E80046461E604E4614435F609E601C61644607
:1028F800476AA426FB0223401A43A023DB059C4613
:10290800846A7600A401BB0163446444B4468444E9
:1029180066461E605C604C469C601A61012213008A
:102928001400AB40BC408A4023431343A0218622B5
:1029380004000125C905D2008B50C16B4034FC3E10
:102948002A00236810339A404B681A42FCD004349A
:10295800B442F5D101213C3000F0F4F8C0BCB946CE
:10296800B046F8BDFDFF1FFF39851F00F0B5DE46F4
:1029780057464E464546E0B5040089B069490068A7
:1029880000F0FCFA10239C46A4446346019304AB70
:102998009A460323A1469B46421CC10112030A43DF
:1029A800614902900A4060620392271D4B463968CC
:1029B800186800F0CBFA4B465E461C68FD683B6819
:1029C800AE40984602223300AA404146200000F05B
:1029D80051FB0122330052424146200000F09EFB89
:1029E800524B2800E618360D0636F6B23100FDF7D0
:1029F8003FFD3100681CFDF73BFD80235B0204931B
:102A08005346039AAD025A60F823DB011D40802328
:102A18005246DB052B43D360454B4146936020006B
:102A28005346029A00F0D0FB414601228A402368AF
:102A38002025934323604B467124F8683D4E595D29
:102A480083009A1912680437224090463A4A9446FD
:102A5800424663441A60FDF725FD4B46B868595D48
:102A6800013083009A1912681440334A944663442B
:102A78001C60FDF717FD019BBB4297D14C46E569E9
:102A88006B081F2D36D807221A4093009B182B4A33
:102A98009B009446002263441A609A60DA60093207
:102AA8001A6107325A600C3A1A60254ADA60214BDB
:102AB80071279C4620239846AE00664428000421CE
:102AC800FDF7D6FC43468022E15C336852013B4067
:102AD800B21828001360FDF7E5FCE36901350133FE
:102AE8000436AB42EAD209B0F0BCBB46B246A946AE
:102AF800A046F0BD5A461A40083293009B180F4A68
:102B08009B009446002263441A609A60DA60093296
:102B18001A6107325A600C3A1A60094ADA606B1C6B
:102B2800C5D1E0E7C04F0020FFFFFF9F0000E0AFE6
:102B380000000E6804C0014004D0014000000540B8
:102B480005000500012330B51C0042681D009440B3
:102B580022008468A540C4682A43A340134302683E
:102B6800C0694408002916D0802189018C46624436
:102B780013601F2829D903222240083293009B188A
:102B8800134A9B009A18116801228A4311498C46FE
:102B980063441A6015E0C02189018C4662441360C1
:102BA8001F280FD903222240083293009B18084A95
:102BB8009B009A18116801220A4006498C46634412
:102BC8001A6030BD07222240EFE707222240D5E7EE
:102BD80000000540001005400023036003717047A2
:102BE800F0B557464E464546DE460124E0B5067D1B
:102BF8000578B61A724256413F4A85B094464268F3
:102C0800019502926C4052088D689A604A68CF68B4
:102C1800A8465D60394DD2022A40FF03AA463A43CE
:102C2800374D0F682A40FF023A43364FA9463D0008
:102C38001543AB46DD60856876000395019D3443F6
:102C4800354346465E615E46DE614646AD006544F4
:102C58001D61039DA4006D089D61C5685E626E08D4
:102C68009E62294E644432409926324346461C608F
:102C78001C62DA6202695E635E460398DE63804620
:102C880060465646186448691C63C0023040CE69E5
:102C9800029CF60330434E46444464198D69640827
:102CA8005D649C6430400E695D658D6A9C6654461F
:102CB800F60230433843D864D865486A6646C0028D
:102CC8002040CC6A096AE40320434C46C9022040EC
:102CD800014352080F439A631E659A651E665D6636
:102CE800DF661E675D679A67DF6705B0F0BCBB46A5
:102CF800B246A946A046F0BD78440020FD7F00FFFB
:102D0800FF87FFFF99002000FFFFDFFFF0B5574660
:102D18004E464546DE46E0B50F00012493466B4A11
:102D2800896894468846426885B0067D02925208B2
:102D380005789A607A6801975960FF686449D202F9
:102D48000A40FF033A43019F66403F688A46F6B24D
:102D5800604976006C400A40FF02354389465E4967
:102D68003A43AD00114365440F00D96081681D6185
:102D7800454603915D614D084146E4B234439926C6
:102D88009D61C56859625946A40064441C601C6270
:102D98006C089C62514C006914403443DF61DC626A
:102DA8004008002952D019634146596351464C4C9A
:102DB800019F2243DA637A69FE69D2020A40F60368
:102DC800494632433E69039F0A40B8460299F602D3
:102DD80041448846614616433F4A019F324319647D
:102DE800B969DA648200934445445964884659466F
:102DF80019654146596551462643DE657E6A6D0868
:102E0800F6020E40F96A9863C9030E4349460E401C
:102E1800396A9D64C902884661461966B96A2E4FA7
:102E28008C4641460E43986537435A4434436146BD
:102E38009D665966DF661A6759679867DC6705B04B
:102E4800F0BCBB46B246A946A046F0BD4146596310
:102E58005146DF63019F234A7C69FE69E4020C4006
:102E6800F603494634433E69039F0C40B84602992D
:102E7800019F4144884661461964B96945448846BA
:102E8800F6025964144934430C4341465965514686
:102E9800161D1E657E6ADC64F6020E404946DC6536
:102EA800FC6A6D08E40326430E4061463C6A1966D5
:102EB800B96AE4028C46084934430C431A63270074
:102EC80098639D6498650832B1E7C046784400204D
:102ED800FD7F00FFFF87FFFF99002000FFFFDFFF56
:102EE800190020006C44002010B5064B064C82B037
:102EF8000100009300220B232000FDF755FB02B0D0
:102F080010BDC046C44800204878012003680B6003
:102F180043684B6083688B60C368CB6003690B614F
:102F2800C36A4B61036B8B617047C0460B680360D3
:102F38004B6843608B688360CB68C3600B6903612F
:102F48004B69C3628B6903637047C046074B10B572
:102F58009C466044000D012806D0054A80004118AF
:102F68000448FDF7FFFA10BD034AF7E70000E0AF99
:102F780008490020146B0120E4480020F0B55746AA
:102F88004546DE464E468846E0B583B00600052530
:102F9800FDF7D2FA434684465D571879334B344AD5
:102FA800F3181B0D9B009246D7580122202482401B
:102FB800241A013A002D41DBA54232DC1100A94058
:102FC8000F422ED141460968894641468979002930
:102FD80045D12C00AA40934659463A40394241D13E
:102FE800802189018846002816D06146A44634000D
:102FF8004E469946030001915100705A404500D24F
:103008004019A91812318900013208519A42F3D3A4
:10301800019B64469C464B465A4617435246D75036
:1030280001E0012464426046FDF792FA200003B0F3
:10303800F0BCBB46B246A946A046F0BD002C02DA59
:1030480010E0013C0ED31100A14025000F42F8D139
:10305800414609688946414689790029BAD014242D
:103068006442E0E709246442DDE7C0460000E0AFBF
:10307800006B0120F0B5DE4657464E464546E0B5A2
:103088001600DC22924685B01C004B0002935B18A8
:10309800DB00C518AA445246834628001268CC3083
:1030A800009202682B0001921B4A802094468002FD
:1030B80063441860002C1DD08023DB04994601234B
:1030C800D83598462B00E02755469A463F0203918B
:1030D8002000FEF74FFE4A46430113432B6033009E
:1030E8004246C340134052463B431360631E1C4094
:1030F800EED10399029B5B18DB005B441A00009930
:10310800DC321160019ACC331A6005B0F0BCBB46C2
:10311800B246A946A046F0BDCC300000F0B5DE4668
:1031280057464E464546E0B51600DC22924685B025
:103138001C004B0002935B18DB00C518AA445246DA
:10314800834628001268CC30009202682B00019256
:103158001B4A80209446800263441860002C1CD0CF
:103168008023DB0499460123D83598462B00554621
:103178009A46144F03912000FEF7FCFD4A4643018E
:1031880013432B6033004246C340134052463B432F
:103198001360631E1C40EED10399029B5B18DB0091
:1031A8005B441A000099DC321160019ACC331A6032
:1031B80005B0F0BCBB46B246A946A046F0BDC04625
:1031C800CC30000080E00000F0B501258D40046897
:1031D800AC430460002B2ED04D006C18E400041999
:1031E80026001F68C83637609F68043677605F68B6
:1031F800DB68DC34376023606B18184DDB00AC46A5
:103208008025C41864442D0625602560144C0D1DC6
:103218008C40846001242600AE40802508318C4013
:103228001F21AD014519C0180A40D8302E602C6006
:1032380002600020F0BD4D006C18E400041926005F
:103248008027C8367F023760C0273F03B760F8275A
:1032580004367F02DC3437602360CDE7D0100000ED
:10326800010101017047C046030010B50A00034977
:103278000868190000F004F810BDC0467864012001
:1032880070B50B0C0024150C002B28D1002D3CD157
:103298008BB291B2594300F051F8051E33D00300A8
:1032A800083B5A6803239A43043A242A12D8030095
:1032B800132A0AD90460446008331B2A05D984609C
:1032C800C460242A2AD00300103300221A605A60EE
:1032D8009A6002E00021FEF78BFE280070BD002DE9
:1032E80016D1151C89B292B24A43ADB29BB26B4358
:1032F800110C5B18190C0BD1190492B2114300F090
:103308001DF8051ECBD10025E7E72B1C0D1CE9E7AE
:1033180000F01CFB0C2300250360DEE703000461BA
:1033280018334461D1E7C04610B5034B0100186853
:1033380000F004F810BDC04678640120F0B54E4690
:103348004546DE465746E0B50D000B35060085B00C
:10335800162D21D8102900D9D4E000F0D5FA10256F
:1033680018230221CA4FFB181A005C68083A9442D5
:1033780000D186E103226368A1689343E268CA60CA
:1033880091600121E3185A6830000A435A6000F03E
:10339800C3FA20000830B8E007239D4300D5B1E008
:1033A800A94200D9AEE000F0AFFAFC235B009D42D1
:1033B80000D2E0E1690A00D1AEE0042900D9A1E118
:1033C80038239846A90988443931CB00082252424B
:1033D8009446AF4FFB189C446346DC68A44514D060
:1033E800032399460B0061469C4607E0E068002AE3
:1033F80000DB40E1814200D141E104004A466368B4
:1034080093435A1B0F2AF1DD41463A003C690832C2
:10341800944200D11EE1032063688343581B0F28A0
:1034280000DDACE13A617A610028AADA7A68904650
:1034380080229200934200D336E1DA08580901232A
:103448008340404618438046D300DB199A68786069
:10345800E360A2609C60D46001208B1098404045D6
:1034680062D8434603420AD10323994343464000A6
:103478000431034203D1400004310342FBD003234B
:10348800B3469C460E00B8460190F0004044010047
:10349800B246CB680BE064465A681F00A243DB685B
:1034A800541B0F2C00DD39E1002C00DB53E199425D
:1034B800F1D101239946CA44534608319B07E8D104
:1034C800032205E003680838013E834200D013E276
:1034D8003242F7D14346019A5B68934342465360B0
:1034E800019A520001929A421CD8002A06D119E08A
:1034F80004229146019ACA44520001921342F7D01D
:103508005646C2E70C233360002005B0F0BCBB462A
:10351800B246A946A046F0BD80233F2240219046EE
:103528009B0053E75E4647460322BC6863689343A3
:103538009846AB4203D35B1B0F2B00DD8DE02300C5
:1035480043440293534B08201B6810335B190193C3
:1035580000F002FA504903900B688A46013306D0FE
:103568008446019B4242013B63441340019330006F
:10357800019900F0D9F903008146013300D11CE11B
:10358800029B834200D916E1444B02989B461A6875
:10359800019B59469C4662440A6003990139484593
:1035A80000D157E153461B68013300D15EE14B4619
:1035B80002981B1A9B185A46136007234A46484626
:1035C8001A400292184200D115E10398013384464B
:1035D8009B1A019A99444A44019263440A409B1AEF
:1035E800194030008A4600F09FF9431C00D158E189
:1035F8004B46C01A0300534401935B461A680120E6
:1036080052441A604B464946BB60019B03434B60DA
:10361800BC4213D043460F2B00D82BE107210C3BAB
:103628008B4361680140052019436160E1184860D7
:1036380088600F2B00D93FE14B465B681849086842
:10364800904200D20A6017490868904200D20A6086
:103658004C46B4E07B689846FEE6012229001343F5
:103668001143651961603000BD606B6000F054F96A
:103678002000083049E7A268D060826081E6614690
:10368800C3E6DC680231A34200D1BEE672E6C0465A
:1036980070600120C46901206860012094690120DC
:1036A800BC690120C06901205A0A042A7CD9142A5D
:1036B80000D9B0E010005B3082465C32D2000820AE
:1036C80040428446BA189444624692680B30814658
:1036D800944500D186E00800A2466146844602E08F
:1036E8009268914204D04C465068A0439842F7D85B
:1036F800D368614654469C466346A260E3609C607A
:10370800D460A9E6142967D9542900D98CE06E231E
:103718009846290B88446F31CB0057E6BA460120FA
:1037280051468446491905435046456085684746D1
:103738006046EB605E469D6053463961796120437F
:1037480008374860CF6030008F609C5000F0E4F884
:1037580050460830D9E6BA4601205E4652445168C0
:1037680001435160BA683000D3609A6000F0D4F821
:1037780038000830C9E62B00E9080833F2E561197A
:10378800884601218C460D4341466560396179615F
:10379800CA608A60624602434A60E050300000F026
:1037A800BBF820000830B0E69A09100039323830EA
:1037B8008246D20083E7BC4241D0BC6863680322DA
:1037C80093431A005B1BAA4202D30F2B00DD44E788
:1037D800300000F0A1F897E65B23984688445C31F6
:1037E800CB00F3E553469810012383404046184325
:1037F8008046786080E7019B039A4B440B40D31ABC
:10380800194030008A4600F08FF8431C00D0EFE6DC
:1038180000239A46F1E6542A2ED81A0B10006F326C
:103828006E308246D2004AE7AA235B0099422ED81E
:10383800DD3B9846E90B88447831CB00C6E5304B30
:103848009B461A68019B9C465B4662441A60039B30
:10385800591EA7E64846084200D0A3E6B968434483
:10386800894601210B4349464B60E7E653464A46E1
:103878001A60A2E64860ABE7AA204000824226D838
:10388800DA0B1000783277308246D20017E71D4BEA
:10389800994226D87C239846A90C88447D31CB00D0
:1038A80094E5019A029B94464A46083B63449B1A56
:1038B800019300239A46A0E621003000083100F069
:1038C800E5F85B461A68BB6899465B68B6E60D483A
:1038D80082420CD89A0C10007D327C308246D2008D
:1038E800EDE6FE237E227F2190469B006EE5FE22B8
:1038F8007E2092008246E2E643465B68F0E5C046D9
:10390800946901205405000010B5024800F032F80F
:1039180010BDC0469069012010B5024800F02CF88F
:1039280010BDC04690690120002370B5064C050003
:1039380008002360FEF78AFB431C00D070BD236893
:10394800002BFBD02B60F9E7006E0120014B1868B3
:103958007047C04678640120802310B55B010828B1
:1039680001D1180010BDFFF7F1FF16230360173BC4
:10397800F7E7C0467047C0467047C04610B5830792
:103988000AD00300032102E001330B4205D01A7864
:10399800002AF9D1181A10BD030019680C4A0D4CF9
:1039A8008A188A4322420FD15968094A04338A186F
:1039B8008A43224208D15968054A04338A188A433F
:1039C8002242F1D000E001331A78002AFBD1E1E766
:1039D800FFFEFEFE80808080F0B5C646060000B57A
:1039E80008200D00FFF7B8FF04003000FFF78CFF38
:1039F800234B210098469B685F6803239F43380048
:103A08001138401B0019FEF7BBF9451E6543AC424F
:103A180008DC00213000FFF787FF43469B68DB196D
:103A2800984206D03000FFF777FF002080BCB846E8
:103A3800F0BD30006942FFF777FF01300ED0012258
:103A480043467F1B9B6817430E4A5F60136830002C
:103A58005B1B1360FFF760FF0120E7E700213000E0
:103A6800FFF762FF43469A68831A0F2BDADD064C8C
:103A780004492468001B086001210B435360D1E707
:103A8800706001209469012068600120F0B5D64675
:103A98004F46464605000C00C0B5002948D0FFF740
:103AA80033FF2100012708394B6803209C46BB439C
:103AB800CE18726882436046384080466A4891460C
:103AC8008468B44200D17CE07260B41864683C40F9
:103AD800A2464446002C30D10C68A446091B8C68C9
:103AE8006344A4460824A0468044C4455CD0CC68FE
:103AF800A04664464246E26094605246002A1FD0BF
:103B08001F434F60336080229200934230D2DA081C
:103B18005C090123A340446823434360D3001B1876
:103B28009A68CB608A609960D1602800FFF7F4FE3C
:103B3800E0BCBA46B146A846F0BD5246002A0FD1AD
:103B480001224B44CF18BC46B468484F1A43BC42C4
:103B58005BD0F668E660B4604A6062461360D2E7FC
:103B680062463A434A608022336092009342CED341
:103B78005C0A042C3FD89C09260039343836E40006
:103B880004192268083C0327944203D14EE0926846
:103B9800944203D05068B8439842F8D8D468CC60AF
:103BA8008A60A160D160C0E75246002A35D14B44F3
:103BB8001A00B068F3681743C36098604F608A5072
:103BC800B3E74B441A004346002B06D10B68C91AC9
:103BD8008C68D218CB68E3609C60012313434B6068
:103BE800234B81601B6893429FD8224B2800196899
:103BF800FFF7F2FE99E7142C13D9542C1DD81C0B8F
:103C080026006F346E36E400BAE7E160A1604A60CE
:103C18006246CC608C60136087E71F434F60336057
:103C280083E726005C345B36E400A9E70123B6107D
:103C3800B340466833434360B1E7AA225200944236
:103C480005D8DC0B260078347736E40098E70A4A72
:103C5800944205D89C0C26007D347C36E4008FE71E
:103C6800FE247E26A4008BE7706001207860012086
:103C78006C600120C469012054050000F8B5C046F5
:103C8800F0B5D6464F4680B5244B8DB002AE19002C
:103C9800320031C931C211C911C21433150013CB16
:103CA80013C203CB03C200239A461D4F01239C462F
:103CB800E24453461E2B06D1D02380221B069203D2
:103CC800DA6100239A4610235B4299460024B944DE
:103CD800380001A9FDF7DAFAA0220198114952002B
:103CE80000F032FDA0232200310001985B0000F0B3
:103CF800DFFDA0232200290001985B0000F0D8FD19
:103D08000134484601A9FDF789FAF02CE0D133883F
:103D1800013333802B8802332B80C7E7244F0020E0
:103D2800F06D0120916C0000D02330B500251B06F2
:103D380000245D5705E0BFF35F8F1C6081F3108896
:103D480020BF0268EFF3108172B61368002BFCD015
:103D5800BFF35F8F027903687F2AECD90571BFF33F
:103D68005F8F00221A6081F3108830BDF0B5C64617
:103D7800150000B504001E000268EFF3108172B64A
:103D88001368002BFCD0BFF35F8F0423E35622682F
:103D9800002B2BDBBFF35F8F0020106081F31088AE
:103DA800D02212061278002752B290469A420ED1BB
:103DB800002080BCB846F0BDBFF35F8F176081F369
:103DC800108828003100FDF731F90028F0D1226869
:103DD800EFF3108172B61368002BFCD0BFF35F8F2E
:103DE800237922687F2BE7D9434602E0D0231B06BC
:103DF8001B682371BFF35F8F0023136081F3108862
:103E08000120D6E70268EFF3108172B61368002B21
:103E1800FCD0BFF35F8FFF2303710368BFF35F8F8D
:103E280000221A6081F3108840BF7047F0B5DE4663
:103E380057464E4645460100E0B5040083B0006889
:103E4800343100F0DFFB9B239B00E358002B32D07A
:103E5800A1239B00E258EFF3108572B61368002B7C
:103E6800FCD0BFF35F8FA1239B00E1180B894A891F
:103E7800C8899A1A00D541E1A126B600A659B046CC
:103E8800824200D1EDE19B229200A2589F00944605
:103E980066464A680133BE50002217009BB298421A
:103EA8005741784203400B81BFF35F8F43461A6046
:103EB80085F3108840BF9A239B229B00E15892000B
:103EC800A1500022E2502368A1681A69904B890129
:103ED8009C46520861440B689A42FCD18C4BA169FC
:103EE8009C46890161440B689A42FCD1884BA16ABF
:103EF8009C46890161440B689342FCD19D229C2316
:103F0800920093469B009946E358A344002B00D1A6
:103F18007FE0A1239B000026E1181DE0824200D12A
:103F280065E0019040464A689F00B8500133019A05
:103F38009BB2934200D962E00B81BFF35F8F634667
:103F48001E6085F3108840BF4B464A46E358013B44
:103F5800A350002B00D15CE09D239B00E258EFF3B7
:103F6800108072B61368002BFCD0BFF35F8F5B46DE
:103F78005A465B891289D21A03D55D46ED89013507
:103F88005219002A3DD05A4652689D00AA58350059
:103F980090465A460133D2899BB29A4275416A4289
:103FA80013405A4653819D239B00E358BFF35F8F0C
:103FB8001E6080F3108840BFA1239B00E258EFF3F6
:103FC800108572B61368002BFCD0BFF35F8FA12752
:103FD800BF000B894A89E759C889BC469A1A00D498
:103FE8009CE7471CBA465244824200D099E7BFF387
:103FF8005F8F63461E6085F3108820BFDCE70E8163
:104008009BE79D239B00E358BFF35F8F1A6080F303
:1040180010883823E35C032B00D17FE0012B3AD0D2
:10402800A026F605B44626006368A068D902800178
:104038009B0163446044E8361E60586004202700F2
:10404800344D354A29401143986019616369A6695E
:10405800D9022940B6019B012937634411436644BC
:10406800FF371F605E6098601961636AD902294052
:104078000A43A16A9B018901493463446144FF34BE
:104088001C60596098601A6103B0F0BCBB46B24628
:10409800A946A046F0BDA026F605B44626006368EA
:1040A800A068D90280019B016344604468361E60A1
:1040B800586004202700174D174A2940114398607B
:1040C80019616369A669D9022940B6019B01634455
:1040D80011436644A8371F605E6098601961636A7F
:1040E800D90229400A43A16A9B01890163446144BA
:1040F800C8341C60596098601A61C5E7461C92195B
:10410800A126B600A659B046824200D0BBE6A8E078
:1041180004080050FDFF1FFF39851F009D239B00E9
:10412800E358EFF3108072B61A68002AFCD0BFF388
:104138005F8F9D239B009B46A3445B465A891B893E
:104148009B1A00D5E2E09D2189006558002B00D11B
:1041580090E05B465B689200D258BFF35F8F002304
:104168002B6080F31088636BDB0700D4E0E0002746
:1041780058466258EFF3108C72B61368002BFCD0C7
:10418800BFF35F8F458902896658521B00D5C2E08C
:1041980000D1C6E04268A900895800222B00170008
:1041A80083460133C0899BB2984257417842034005
:1041B80058464381BFF35F8F32608CF3108840BF4D
:1041C8009A239B00E1503823E35C012B00D162E77E
:1041D800032B00D024E7002961D02600A0276936E8
:1041E800FF3632002068FF0500F02EFABC466368EF
:1041F800A068D90280019B01634460441E60586036
:10420800042027004B4D4C4A2940114398601961FE
:104218006369A669D9022940B6019B01A93763449D
:1042280011436644FF371F605E6098601961636AD6
:10423800D902294025000A43A16A9B018901C93591
:1042480063446144FF351D60596098601A61636E6C
:10425800002B00D118E7626BD20700D414E7984707
:1042680012E7BFF35F8F0023336085F3108833486C
:10427800FCF74AF9BFF35F8F2B6080F3108838236F
:10428800E25C636BDB0704D59C218900635801332A
:104298006350012A00D1FEE6032A00D0C0E6A0261A
:1042A800F605B44626006368A068D90280019B0120
:1042B800E93663446044FF361E60586004208A274C
:1042C8001C4D1D4A29401143986019616369A6690C
:1042D800D9022940B6019B01BF00634411436644DB
:1042E800E7191F605E6098601961636AD902294006
:1042F80092250A43A16A9B018901AD006344614488
:1043080065191D60596098601A61A0E75946C98906
:1043180001315B1817E7C38901339A18002A00D0C6
:1043280038E7BFF35F8F37608CF3108820BF20E732
:10433800110048E7FDFF1FFF39851F008448002052
:10434800064BA02158680123826810B59340044A9F
:10435800C9058B50FFF76AFD10BDC046406B0120B0
:104368001C040000064BA02118680123826810B5C0
:104378009340044AC9058B50FFF758FD10BDC0464D
:10438800406B01200C040000A523F0B557464E46AB
:10439800DE4645469B009A46103B9946103BE0B5E1
:1043A800C61830339B468344050000245F4687B017
:1043B800824481440396A5239B00EA58EFF31081B9
:1043C80072B6039E1368002BFCD00396BFF35F8F71
:1043D80053465246A5205B89128980002858D21A74
:1043E80000D5D2E000D1DAE0524652689E00B258B9
:1043F8002600934652460133D2899BB29A426641BF
:104408007242134052465381BFF35F8F046081F3B9
:10441800108840BFA1239B0004934B46039E049A37
:10442800A958EFF3108872B60A68002AFCD0BFF3C7
:104438005F8F04995A8918896958801A039100D5A1
:10444800CEE000D1D5E0994613004A4650689A005C
:104458000399039616584A460596D08922000133D7
:104468009BB29842624150424A4603405381BFF38F
:104478005F8F0C6088F3108840BF2B6831001B6980
:1044880058465B08984600940423424600F00AF90F
:1044980043469B009C4632001E00624405231100DF
:1044A8005846424600930533049100F0FBF8B446A1
:1044B8000B2304990093424604335846614400F0A4
:1044C800F1F89D23039E9B000493049BEA58EFF3A5
:1044D800108C72B61368002BFCD0BFF35F8F049862
:1044E800338972892858F1899A1A039000D569E0AE
:1044F8008A4200D16CE0624603980491844605998B
:104508001000726803969E00B1502200049901338E
:104518009BB299426241039E524213403381BFF3DA
:104528005F8F63461C6080F3108840BFA9239B00FF
:10453800EA58EFF3108C72B61368002BFCD0BFF367
:104548005F8F3B891A0003937B89F989D31AA922C3
:104558009200AA58002B29DB8B422CD0039B039690
:104568005E4690467A6898008650220001339BB2D6
:1045780099426241524213403B81BFF35F8F4346E9
:104588001C608CF3108840BF15E75646F689B44680
:104598000126B046C4446244002A00D024E7BFF391
:1045A8005F8F046081F3108820BF04E7481C8046B1
:1045B80043448B42D2D1BFF35F8F14608CF31088D1
:1045C80020BFB3E7481C804642448A4200D092E7A5
:1045D800BFF35F8F039B1C608CF3108820BF74E7C8
:1045E800D989894601218C46E1444844002800D0F5
:1045F80029E7BFF35F8F039A146088F3108820BF00
:104608000DE7C0460B680A7901330B60002A03D115
:104618008069834205D07047012A09D1C069834265
:10462800F9D10323013213400B7100230B60F2E729
:10463800022A03D1006A8342EDD1F2E7032AEAD1C4
:10464800406A8342E7D1ECE70069116343089B00A5
:104658008000CB18091813651167704700FD070023
:1046680000FD070001FA0B0054530D00ABAC02002B
:1046780054510500ABAE0A00000000001000000015
:104688006000000030000000800200000000000010
:104698000A0000000200000021000000E001000004
:1046A80060D80300F0B5C6461C0000B5234D88B09D
:1046B80006000F00280001A99046FEF727FC0E9A75
:1046C8000732E31F23D4F821121B890052010A4044
:1046D8001F210B4013431800E0235B010343EB62E7
:1046E8008E230934214011435B020B432B63144B87
:1046F8004246AB6039003000EB603BF079FD0F4873
:1047080001A9FEF713FC08B080BCB846F0BD141B25
:10471800F822640192001440E02252012243EA6226
:10472800084A390022432A63054A3000AA605B42DE
:10473800EA6042463BF074FDE1E7C046800000D0E5
:1047480064000420101C01000F2A16D80AA3520086
:104758009B1A01331847C046C18381834183018373
:10476800C182818241820182C1818181418101812D
:10477800C1808180418001807047F0B5930802D3E1
:1047880001800230013A520012181A3A94460A047B
:1047980011430A460B460C460D460E460F46FEC010
:1047A8006045FCD31A226244121A120700D3F0C0E3
:1047B800520000D330C0520000D310C0520000D3C2
:1047C8000480F0BDF0B544464D4630B4374F160767
:1047D8000FD0FC69247864020C441507ED0E2C44B4
:1047E8002588AE0900D3058002340230013216074D
:1047F800F6D188469B1A5C000444A1461C09640152
:104808000444A4463EE0F96909784902414478C95C
:104818009A0900D303809A0D01D31B0C4380A20987
:1048280000D38480A20D01D3240CC480AA0900D32C
:104838000581AA0D01D32D0C4581B20900D38681CB
:10484800B20D01D3360CC68178C99A0900D3038208
:104858009A0D01D31B0C4382A20900D38482A20DB6
:1048680001D3240CC482AA0900D30583AA0D01D35D
:104878002D0C4583B20900D38683B20D01D3360CC3
:10488800C68320306045BED3FC6924786402444462
:1048980005E02588AE0900D305800234023048457A
:1048A800F7D330BCA046A946F0BD0000C00000D038
:1048B800F8B5CE46474680B501277F420E000D7BEE
:1048C8003900A94099463B009446328874888A4347
:1048D800717B64448B409C432300B17B0331CB4004
:1048E8006D1AAB409846B368ED199C461300CB404F
:1048F800C4449846F823AD02DB011D400B4B8F40A2
:10490800DD6245461D6001259D6000251D636546E5
:10491800BC438C401D614B46716864000919D3186B
:104928003469A047C0BCB946B046F8BDC00000D045
:10493800436F6E6669677572696E672044564900F1
:10494800436F726520312073746172740000000037
:10495800416C6C6F636174696E67207363616E6C20
:10496800696E652062756666657273005379737443
:10497800656D20636C6F636B206F66202575206BF7
:10498800487A2063616E6E6F742062652065786175
:1049980063746C79206163686965766564000000FA
:1049A80053746172742072656E646572696E670013
:1049B8000A2A2A2A2050414E4943202A2A2A0A0034
:1049C8000A000000486172647761726520616C6159
:1049D800726D20256420616C726561647920636C56
:1049E80061696D65640000004861726420617373D9
:1049F800657274004F7574206F66206D656D6F72F7
:104A08007900000052656C6561736500626F6F74B0
:104A1800325F77323571303830000000322E312E57
:104A2800310000007069636F0000000074696C65F4
:104A3800735F706172616C6C617800004A756E20FA
:104A4800313320323032350055415254207374646A
:104A5800696E000055415254207374646F75740078
:104A68005541525420737464696E202F2073746406
:104A78006F757400544D44532066726565207175D6
:104A88006575652066756C6C20696E2049525121E8
:104A980000000000544D445320627566666572201C
:104AA800616C6C6F636174696F6E206661696C65B7
:104AB800640000004E6F20444D41206368616E6EB3
:104AC800656C732061726520617661696C61626CE6
:104AD8006500000050494F203120534D202825649F
:104AE800202D20342920616C726561647920636C03
:104AF80061696D656400000050494F203020534DB6
:104B080020256420616C726561647920636C616939
:104B18006D65640061616F616161616161616161BD
:104B28006F6161616161616161616161616161615F
:104B38006F6161616161616161616F6161614D7244
:104B48007272724E616F6161616F6161614D727203
:104B5800724E61614E6F6161616F6161614D733366
:104B680033333371727272727272727272730000BE
:104B780000717272717272727272724E6162333344
:104B880033333333333302030405063333333333D8
:104B9800333333333333020304050671727333330B
:104BA8003333333333331314151617333333333363
:104BB80033333333333313141516173300013333B8
:104BC80033333333333324252627283333333333EE
:104BD8003333333333332425262728331112333321
:104BE8003333333333333536373839333333333379
:104BF8003333333333333536373839333333333369
:104C0800333333333333134748494A333333333336
:104C1800333333333333464748494A3333333333F3
:104C28003333333333333558595A5B3333333333B0
:104C38003333333333335758595A5B33333333337E
:104C48003333333333336858596B6C33333333333B
:104C580033333333333368696A6B6C333333333309
:104C680033333333333368696A447D33333333330F
:104C7800333333333333797A7B7C7D333333333394
:104C88003333334A4A4A797A7B4A4A4A4A4A4A4A31
:104C98004A4A33335D5D5D5D5D5D5D5D5D5D5D5DB6
:104CA8005D5D5D5D5D5D5D5D5D5D5D5D5D5D5D5D2C
:104CB8005D5D5D5D6E6E6E6E6E6E6E6E6E6E6E6E50
:104CC8006E6E6E6E6E6E6E6E6E6E6E6E6E6E6E6EFC
:104CD8006E6E6E6E6E6E6E6E6E6E6E6E6E6E6E6EEC
:104CE8006E6E6E6E6E6E6E6E6E6E6E6E6E6E6E6EDC
:104CF8006E6E6E6E6E6E6E6E6E6E6E6E6E6E6E6ECC
:104D08006E6E6E6E6E6E6E6E6E6E6E6E6E6E6E6EBB
:104D18006E6E6E6E3333606170623333336061611F
:104D28006161616161616233333360616161614D09
:104D3800724E6161616162333333333333333333FA
:104D4800333333333360616161615E505050505F7B
:104D58006161623333336061616233333360616F41
:104D680061614D724E70623333336070616F61629E
:104D78006C606161616162333333333333333333AE
:104D880033523E333371727272727272727272720D
:104D980072727333333360616162333333606161DC
:104DA80061616226606162333333717272724E5E82
:104DB800505F61616161623333333333333333338B
:104DC8004F5050513333333333333300013333339C
:104DD800333333333333606F61623333336070613D
:104DE8006F615E505F6162333333333333336061F5
:104DF8006F614D724E7062333333333333334B4FFD
:104E08005F70615E5051333333333333123333338E
:104E180033333333333360616162333333717272E6
:104E28007272727272727333333333333333606135
:104E380061616200606162333333333333335C6002
:104E48006F616170616233333333333333333333F8
:104E5800330A0B0C33337172727333333333333396
:104E680033333333333333333333333333336070A0
:104E780061615E505F6162333333333333335C6077
:104E880061706161706233333333333333333333B7
:104E98000A181C1D3333333333333333333333334B
:104EA800333333333333333333333333333371724D
:104EB80072727272727273333333333333335C7199
:104EC800727272727273333333333333333333332F
:104ED8001B1C1C1D3333330E33333333333333331B
:104EE800333031313131313131313333336533336B
:104EF80033333333333333333333333333335C3351
:104F0800333333333333333333333333191A4B3384
:104F18001B1C1C1D330A0B0C3333333333334B0A3E
:104F28000B0C333333333333330A0B0B0B0B0B0BB1
:104F38000B0B0B0C333333333333333333335C33AF
:104F48003333333333333333333333191C1D5C3347
:104F58001B1C181D331B1C1D3333333333335C1BAD
:104F68001C1D333333333333331B1C1C1C1C1C1CD8
:104F78001C1C181D333333333333333333335C332F
:104F880033333333333333333333191C1C3F5C33FC
:104F98003D1C1C1D331B1C1D333333334C336D1B1D
:104FA8001C1D333333333333331B1C1C333333333C
:104FB800331C1C1D33332F332F33333333335C33DC
:104FC800333333333333333333191C1C1C3F5C33D3
:104FD80033333D1D331B181D3333331908081A1B8F
:104FE8001C1D333333333333331B181C765254525E
:104FF800331C1C1D333340334033332F33336D742C
:105008003363333333333333191C1C1C1C3F6D6536
:1050180033523D1D331B1C1D3333331B1C181C1B03
:105028001C1D333333333333331B1C1C2D2D2D2DD3
:105038002D1C1C1D333340334033334033190808CB
:105048000808080708081A331B1C1C1C1C1C2D2DDB
:105058002D2D2D1D331B1C1D3333331B1C1C1C1BFA
:105068001C1D333333333333331B1C1C1C1C1C1CD7
:105078001C1C1C1D3333403340333340331B1C1C72
:105088001C181C1C1C1C1D331B3A1C1C3A1C1C1C09
:105098001C1C3A1C331B1C1D3333331B1C1C1C1BD0
:1050A800181D333333333333331B1C1C1C1C181C9F
:1050B8001C1C1C1D3333403340333340331B181C36
:1050C8001C1C1C1C1C1C1D331B1C1C1C1C1C1C1C01
:1050D8003A1C1C1C331B1C1D3333331B1C1C1C1B90
:1050E8001C1D333333333333331B1C1C1C1C1C1C57
:1050F8001C1C1C1D3333403340333340331B1C1CF2
:105108001C1C1C1C1C1C1D331B1C3A1C1C1C1C1CA2
:105118001C1C1C1C00000000CC4F0020244900204F
:1051280009080100D545002000000000CC4F0020F0
:10513800244B00200A080100D545002006005250E3
:10514800D3F075421448002006005250E182887F4F
:105158001C48002006005250ABB360532C48002076
:1051680006005250BBFF3CB634480020060052509F
:10517800861C03023C480020060052505422A29D7F
:105188004C48002005005250DE65F4686C69011037
:105198000D0A00000600525053B4F4A170480020D4
:1051A80008005250120000000800525092100000EF
:1051B800C84F002002000000A170A168DFFFDFFFD8
:1051C800DFFFDFFFDFFFDFFFDFFFDFFFDFFFDFFFE7
:1051D800DFFFDFFFDFFFDFFF8F328F32DFFFDFFF11
:1051E800DFFFDFFFDFFFDFFFDFFFDFFFDFFFDFFFC7
:1051F800DFFFDFFFDFFFDFFFDFFFDFFFDFFFDFFFB7
:10520800DFFFDFFFDFFFDFFFDFFFDFFFDFFFDFFFA6
:10521800DFFFDFFFDFFFDFFFDFFFDFFFDFFFDFFF96
:10522800DFFFDFFFDFFFDFFFDFFFDFFFDFFFDFFF86
:10523800DFFFDFFFDFFFDFFFDFFFDFFFDFFFDFFF76
:10524800AF32AF32DFFFDFFFDFFFDFFFDFFFDFFF60
:10525800AF32AF32DFFFDFFFDFFFDFFFDFFFDFFF50
:10526800DFFFAF32DFFFDFFFDFFFDFFFDFFFDFFF43
:10527800DFFFAF32DFFFDFFFDFFFDFFFDFFFDFFF33
:10528800DFFFAF32AF32DFFFDFFFDFFFDFFFDFFF20
:10529800DFFFAF32AF32DFFFDFFFDFFFDFFFDFFF10
:1052A800DFFFAF32AF32DFFFDFFFDFFFAF32AF32FA
:1052B800DFFFAF32AF32DFFFDFFFDFFFDFFFDFFFF0
:1052C800DFFFDFFFAF32AF32DFFFAF32AF32DFFFDA
:1052D800DFFFDFFFAF32AF32DFFFDFFFDFFFDFFFD0
:1052E800DFFFDFFFAF32AF32AF32DFFFDFFFDFFFBD
:1052F800DFFFDFFFAF32AF32AF32DFFFDFFFDFFFAD
:10530800DFFFDFFFDFFFAF32AF32AF32AF32DFFF99
:10531800DFFFDFFFDFFFAF32AF32AF32DFFFDFFF8C
:10532800DFFFDFFFAF32AF32AF32AF32AF32AF3273
:10533800DFFFDFFFDFFFDFFFAF32AF32DFFFDFFF6F
:10534800DFFFAF32AF32AF32DFFFDFFFAF32AF3256
:10535800AF32AF32AF32AF32DFFFAF32DFFFDFFF46
:10536800DFFFDFFFDFFFDFFFDFFFDFFFDFFFAF3242
:10537800AF32AF32AF32AF32AF32DFFFDFFFDFFF26
:10538800DFFFDFFFDFFFDFFFDFFFDFFFDFFFDFFF25
:10539800DFFFAF32DFFFDFFFDFFFDFFFDFFFDFFF12
:1053A800DFFFDFFFDFFFDFFFDFFFDFFFDFFFDFFF05
:1053B800DFFFAF32AF32DFFFDFFFDFFF8F32DFFF0C
:1053C800DFFFDFFFDFFFDFFFDFFFDFFFDFFFDFFFE5
:1053D800DFFFDFFFDFFFDFFFDFFFDFFFDFFFDFFFD5
:1053E800DFFFDFFFDFFFDFFFAF32DFFFDFFFDFFFC2
:1053F800DFFFDFFFDFFFDFFFAF32DFFFDFFFDFFFB2
:10540800DFFFDFFFDFFFDFFFAF32DFFFDFFFDFFFA1
:10541800DFFFDFFFDFFFDFFFAF32DFFFDFFFDFFF91
:10542800DFFFDFFFDFFFDFFFAF32DFFFDFFFDFFF81
:10543800DFFFDFFFDFFFDFFFAF32DFFFDFFFDFFF71
:10544800DFFFDFFFDFFFDFFFAF32DFFFAF32DFFF5E
:10545800DFFFDFFFDFFFDFFFAF32DFFFDFFFDFFF51
:10546800DFFFDFFFDFFFDFFFAF32DFFFAF32DFFF3E
:10547800DFFFDFFFDFFFDFFFAF32DFFFDFFFDFFF31
:10548800DFFFAF32DFFFAF32AF32DFFFAF32AF3215
:10549800DFFFAF32DFFFAF32AF32DFFFDFFFDFFF0B
:1054A800DFFFAF32AF32AF32DFFFDFFFAF32AF32F5
:1054B800DFFFAF32AF32AF32DFFFDFFFDFFFDFFFEB
:1054C800AF32AF32AF32DFFFDFFFDFFFAF32DFFFD8
:1054D800AF32AF32AF32DFFFDFFFDFFFDFFFAF32C8
:1054E800AF32AF32DFFFDFFFDFFFDFFFDFFFAF32BB
:1054F800AF32AF32AF32DFFFDFFFDFFFDFFFAF32A8
:10550800AF32DFFFDFFFDFFFDFFFDFFFAF32AF329A
:10551800AF32DFFFAF32AF32DFFF8F32AF32DFFFA4
:10552800DFFFDFFFDFFFDFFFAF32AF32AF32AF3277
:10553800DFFFDFFFDFFFAF32DFFF8F32AF32AF3287
:10554800AF32AF32AF32AF32AF32AF32AF32DFFF4E
:10555800DFFFDFFFDFFFDFFFDFFF8F32DFFFAF326D
:10556800AF32AF32AF32AF32AF32DFFFDFFFAF3231
:10557800DFFFDFFFDFFFDFFFDFFF8F32DFFFDFFF50
:10558800DFFFDFFFDFFFDFFFDFFFDFFFAF32AF321D
:10559800DFFFDFFFDFFFDFFFDFFFDFFFDFFFDFFF13
:1055A800DFFFDFFFDFFFDFFFDFFFDFFFAF32AF32FD
:1055B800DFFFDFFFDFFFDFFFDFFFDFFFDFFFDFFFF3
:1055C800DFFFDFFFDFFFDFFFDFFFDFFFDFFFDFFFE3
:1055D800DFFFDFFFDFFFDFFFDFFFDFFFDFFFDFFFD3
:1055E800DFFFDFFFDFFFDFFFDFFFDFFFDFFFDFFFC3
:1055F800DFFFDFFFDFFFDFFFDFFFDFFFDFFFDFFFB3
:10560800DFFFDFFFDFFFDFFFDFFFDFFFDFFFDFFFA2
:10561800DFFFDFFFDFFFDFFFDFFFDFFFDFFFDFFF92
:10562800DFFFDFFFDFFFDFFFDFFFDFFFDFFFDFFF82
:10563800DFFFDFFFDFFFDFFFDFFFDFFFDFFFDFFF72
:10564800DFFFDFFFDFFFDFFFDFFFDFFFDFFFDFFF62
:10565800DFFFDFFFDFFFDFFFDFFFDFFFDFFFDFFF52
:10566800DFFFDFFFDFFFDFFFDFFFDFFFDFFFDFFF42
:10567800DFFFDFFFDFFFDFFFDFFFDFFFDFFFDFFF32
:10568800DFFFDFFFDFFFDFFFDFFFDFFFDFFFDFFF22
:10569800DFFFDFFFDFFFDFFFDFFFDFFFDFFFDFFF12
:1056A800DFFFDFFFDFFFDFFFDFFFDFFFDFFFDFFF02
:1056B800DFFFDFFFDFFFDFFFDFFFDFFFDFFFDFFFF2
:1056C800DFFFDFFFDFFFDFFFDFFFDFFFDFFFDFFFE2
:1056D800DFFFDFFFDFFFDFFFDFFFDFFFDFFFDFFFD2
:1056E800DFFFDFFFDFFFDFFFDFFFDFFFDFFFDFFFC2
:1056F800DFFFDFFFDFFFDFFFDFFFDFFF8F328F32EC
:105708008F32DFFFDFFFDFFFDFFFDFFFDFFFDFFFBE
:10571800DFFFDFFFDFFFDFFFDFFFDFFF8F328F32CB
:105728008F32DFFFDFFFDFFFDFFFDFFFDFFFDFFF9E
:10573800DFFFDFFFDFFFDFFFDFFFDFFF8F328F32AB
:105748008F32DFFFDFFFDFFFDFFFDFFFDFFFDFFF7E
:10575800DFFFDFFFDFFFDFFFDFFFDFFF8F328F328B
:105768008F32DFFFDFFFDFFFDFFFDFFFDFFFDFFF5E
:10577800DFFFDFFFDFFFDFFFDFFFDFFFDFFFDFFF31
:10578800DFFFDFFFDFFFDFFFDFFFDFFFDFFFDFFF21
:10579800DFFFDFFFDFFFDFFFDFFFDFFFDFFFDFFF11
:1057A800DFFFDFFFDFFFDFFFDFFFDFFFDFFFDFFF01
:1057B800AF32DFFFDFFFDFFFDFFFDFFFDFFFDFFFEE
:1057C800DFFFDFFFDFFFDFFF8F328F328F32AF3235
:1057D800AF32AF32AF32AF32AF32AF32DFFFDFFFBF
:1057E800DFFFDFFFDFFFDFFF8F328F32AF32AF32F5
:1057F800AF32AF32AF32AF32AF32AF32DFFFDFFF9F
:10580800DFFFDFFFDFFFDFFF8F32AF32AF32AF32B4
:10581800AF32AF32AF32AF32AF32AF32DFFFDFFF7E
:10582800DFFFDFFFDFFFDFFFAF32AF32AF32AF3274
:10583800AF32AF32AF32AF32AF32AF32DFFFDFFF5E
:10584800DFFFDFFFDFFFDFFFAF32AF32AF32AF3254
:10585800AF32AF32AF32AF32AF32AF32DFFFDFFF3E
:10586800DFFFDFFFDFFFAF32AF32AF32AF32AF3231
:10587800AF32AF32AF32AF32AF32AF32DFFFDFFF1E
:10588800DFFFDFFFDFFFAF32AF32AF32AF32AF3211
:10589800AF32AF32AF32AF32AF32AF32DFFFDFFFFE
:1058A800DFFFDFFFDFFFAF32AF32AF32AF32AF32F1
:1058B800AF32AF32AF32AF32AF32AF32DFFFDFFFDE
:1058C800DFFFDFFFDFFFAF32AF32AF32AF32AF32D1
:1058D800AF32AF32AF32AF32AF32AF32DFFFDFFFBE
:1058E800DFFFDFFFDFFFAF32AF32AF32AF32AF32B1
:1058F800AF32AF32AF32AF32AF32AF32DFFFDFFF9E
:10590800DFFFDFFFDFFFAF32AF32AF32AF32AF3290
:10591800AF32AF32AF32AF32AF32AF32DFFFDFFF7D
:10592800DFFFDFFFDFFFDFFFAF32AF32AF32AF3273
:10593800AF32AF32AF32AF32AF32AF32DFFFDFFF5D
:10594800DFFFDFFFDFFFDFFFAF32AF32AF32AF3253
:10595800AF32AF32AF32AF32AF32AF32DFFFDFFF3D
:10596800DFFFDFFFDFFFDFFFAF32AF32AF32AF3233
:10597800AF32AF32AF32AF32AF32AF32DFFFDFFF1D
:10598800DFFFDFFFDFFFDFFFAF32AF32AF32AF3213
:10599800AF32AF32AF32AF32AF32AF32DFFFDFFFFD
:1059A800DFFFDFFFDFFFDFFF8F32AF32AF32AF3213
:1059B800AF32AF32AF32AF32AF32AF32AF32AF32D7
:1059C800AF32AF32DFFFDFFFDFFFDFFFDFFFDFFFD9
:1059D800DFFFDFFFDFFFDFFFDFFFDFFFAF32AF32C9
:1059E800AF32DFFFDFFFDFFFDFFFDFFFDFFFDFFFBC
:1059F800DFFFDFFFDFFFDFFFDFFFDFFFAF32AF32A9
:105A0800AF32DFFFDFFFDFFFDFFFDFFFDFFFDFFF9B
:105A1800DFFFDFFFDFFFDFFFDFFFDFFFAF32AF3288
:105A28008F32DFFFDFFFDFFFDFFFDFFFDFFFDFFF9B
:105A3800DFFFDFFFDFFFDFFFDFFFDFFFAF328F3288
:105A48008F32DFFFDFFFDFFFDFFFDFFFDFFFDFFF7B
:105A5800DFFFDFFFDFFFDFFFDFFFDFFFAF328F3268
:105A68008F32DFFFDFFFDFFFDFFFDFFFDFFFDFFF5B
:105A7800DFFFDFFFDFFFDFFFDFFFDFFF8F328F3268
:105A88008F32DFFFDFFFDFFFDFFFDFFFDFFFDFFF3B
:105A9800DFFFDFFFDFFFDFFFDFFFDFFF8F328F3248
:105AA8008F32DFFFDFFFDFFFDFFFDFFFDFFFDFFF1B
:105AB800DFFFDFFFDFFFDFFFDFFFDFFF8F328F3228
:105AC8008F32DFFFDFFFDFFFDFFFDFFFDFFFDFFFFB
